:100000000C942A000C943F000C943F000C943F0089
:100010000C943F000C943F000C943F000C943F0064
:100020000C943F000C943F000C943F000C943F0054
:100030000C943F000C943F000C943F000C943F0044
:100040000C943F000C943F000C943F000C943F0034
:100050000C943F0011241FBECFE5D8E0DEBFCDBF1A
:1000600010E0A0E6B0E0EAEEF0E002C005900D92EC
:10007000AA36B107D9F70E9441000C9473000C9482
:100080000000CF93DF93CDB7DEB72A970FB6F89471
:10009000DEBF0FBECDBF8AE0E0E6F0E0DE011196E4
:1000A00001900D928A95E1F78FEF81BB84BB80E0D0
:1000B00090E0E1E0F0E0EC0FFD1FE80FF91F208178
:1000C00022BB208125BB01968A30910514F080E087
:1000D00090E02FEF39E648E1215030404040E1F711
:0A00E00000C00000E6CFF894FFCF47
:0A00EA0000010203040506070809DF
:00000001FF
